{
  "transactions": [
    {
      "hash": "0xeb51dd88f41ad3c68e67a7b6607667f14199e2cadadaf501d61eaf495022dbc5",
      "transactionType": "CALL",
      "contractName": null,
      "contractAddress": "0xe57389a33af35c42de916ff9ec4af0c3ae9ed3de",
      "function": "mintNFT(string)",
      "arguments": [
        "\"http://bafybeie5venjwpgkqpthezwtyrm7bqm5wzkiukcvqdyftd4behdamkw3re.ipfs.localhost:8080/?filename=shiba-inu.png\""
      ],
      "transaction": {
        "from": "0xa041129e84bfc1d2b29bce9fa309fdeb708fb477",
        "to": "0xe57389a33af35c42de916ff9ec4af0c3ae9ed3de",
        "gas": "0x45016",
        "value": "0x0",
        "input": "0xfb37e8830000000000000000000000000000000000000000000000000000000000000020000000000000000000000000000000000000000000000000000000000000006e687474703a2f2f62616679626569653576656e6a7770676b71707468657a777479726d3762716d35777a6b69756b63767164796674643462656864616d6b773372652e697066732e6c6f63616c686f73743a383038302f3f66696c656e616d653d73686962612d696e752e706e67000000000000000000000000000000000000",
        "nonce": "0x4c",
        "chainId": "0xaa36a7"
      },
      "additionalContracts": [],
      "isFixedGasLimit": false
    }
  ],
  "receipts": [
    {
      "status": "0x1",
      "cumulativeGasUsed": "0x1573ba0",
      "logs": [
        {
          "address": "0xe57389a33af35c42de916ff9ec4af0c3ae9ed3de",
          "topics": [
            "0xddf252ad1be2c89b69c2b068fc378daa952ba7f163c4a11628f55a4df523b3ef",
            "0x0000000000000000000000000000000000000000000000000000000000000000",
            "0x000000000000000000000000a041129e84bfc1d2b29bce9fa309fdeb708fb477",
            "0x0000000000000000000000000000000000000000000000000000000000000000"
          ],
          "data": "0x",
          "blockHash": "0xf6954f094ce88507a0716be51787ee921cc51e8cc684eba78fc19f0a94f0b4e2",
          "blockNumber": "0x617c92",
          "transactionHash": "0xeb51dd88f41ad3c68e67a7b6607667f14199e2cadadaf501d61eaf495022dbc5",
          "transactionIndex": "0xbc",
          "logIndex": "0xdc",
          "removed": false
        }
      ],
      "logsBloom": "0x00000000008000000000000000000004000000000000000000000000000000000010000000000000000000000000000000000000000000000000000000000000000000000000000000000008000000000000000000000000000000000000000000000000020000000000000000000800000000000000000000000010000000000000000000000100000000000000000000000000000000000000000000000000000000000000000000000000000000000000000000000000000000000000000000000002000000000000000000000000000000000000000000000000000020000000000000000000000000000004000000000000000000000004000000000000",
      "type": "0x2",
      "transactionHash": "0xeb51dd88f41ad3c68e67a7b6607667f14199e2cadadaf501d61eaf495022dbc5",
      "transactionIndex": "0xbc",
      "blockHash": "0xf6954f094ce88507a0716be51787ee921cc51e8cc684eba78fc19f0a94f0b4e2",
      "blockNumber": "0x617c92",
      "gasUsed": "0x31f57",
      "effectiveGasPrice": "0x11d15d4f5",
      "from": "0xa041129e84bfc1d2b29bce9fa309fdeb708fb477",
      "to": "0xe57389a33af35c42de916ff9ec4af0c3ae9ed3de",
      "contractAddress": null
    }
  ],
  "libraries": [],
  "pending": [],
  "returns": {},
  "timestamp": 1722135850,
  "chain": 11155111,
  "commit": "37c581a"
}